:020000040800F2
:1000000078220020957A00087D7800087F78000823
:1000100081780008837800088578000800000000D7
:1000200000000000000000000000000087780008C9
:1000300089780008000000008B7800088D7800089F
:10004000BF7A0008C37A0008C77A0008CB7A000894
:10005000CF7A0008D37A0008D77A0008DB7A000844
:10006000DF7A0008E37A0008E77A00089B78000846
:10007000EB7A0008EF7A0008F37A0008F77A0008B4
:10008000FB7A0008A1780008FF7A0008037B0008CB
:10009000077B00080B7B00080F7B0008137B000820
:1000A000177B00081B7B00081F7B0008237B0008D0
:1000B000277B00082B7B00082F7B0008A77800080F
:1000C000337B0008377B00083B7B00083F7B000840
:1000D000437B0008AD780008477B00084B7B000895
:1000E0004F7B0008537B0008577B00085B7B0008B0
:1000F0005F7B0008637B0008677B00086B7B000860
:100100006F7B0008737B0008B3780008777B0008DA
:100110007B7B00087F7B0008837B0008877B0008CF
:100120008B7B00088F7B0008937B0008977B00087F
:100130009B7B00089F7B0008A37B0008A77B00082F
:10014000AB7B0008AF7B0008B37B0008B9780008E0
:10015000B77B0008BB7B0008BF780008BF7B0008A6
:10016000C37B0008C77B0008CB7B0008CF7B00085F
:10017000D37B0008D77B0008DB7B00080000000071
:10018000DF7B0008E37B000881B000F5E0700268C7
:10019000914203D343681A44914202D380680028F5
:1001A000F5D101B07047DFF86C17086890B94FF4CB
:1001B000805048604FF480324FF0FF308A60C86052
:1001C00008610420DFF85027DFF850374861C2F893
:1001D000BC010B600120704701F1080313F0070F09
:1001E0000EBF0023C3F1080303F007031944D21A1A
:1001F0008161C26042F001034B60091D28238B50CE
:10020000DFF810170A69C26170472DE9FC4B0746F9
:1002100001F1080010F0070F0FBF8946C0F1080078
:1002200000F0070001EB000902F1080111F0070FCF
:1002300006D002F10800C0F1080000F007000244F7
:100240001546A5EB090009EB0306A0EB030B43F0F1
:100250000303C9F80430AE4228BF01F001FA28793F
:10026000C10758BF01F0FCF9BBF1100F38BF01F016
:10027000F7F9B869854207D1F8685844F860BE615B
:1002800040F00100706050E1786985420AD1B86899
:100290008344C7F808B07E614BF00100706046F8F7
:1002A0000BB042E1686800F00301012940F0AB8027
:1002B000C008C0000190C0081F2839D8AC68D5F824
:1002C0000C800090454508BF01F0CAF9A54208BF5F
:1002D00001F0C6F968680099C008C000B0EBC10F12
:1002E00018BF01F0BDF9009907F1280000EBC1002B
:1002F000844206D03A699442C0F08080E168A94205
:100300007CD1A04506D100983968012282409143F2
:10031000396075E0804506D0386980456ED3D8F8DD
:100320000800A8426AD1C4F80C80C8F8084067E009
:10033000EC68D5F81880AC420CD0A86839698842BE
:1003400022D3C168A94204BFA168A9421CD1C460DC
:10035000A0601BE005F11402146834B905F1100225
:1003600014689CB101E01A46146804F1140319687A
:10037000002902BF04F1100318680028F3D139697D
:100380008A4228BF106001D201F06AF9B8F1000F6B
:1003900036D0E96907F5987000EB81000268954254
:1003A00008D10460A4B9E8697968012282409143C8
:1003B000796025E03869804508D3D8F81000A84254
:1003C00014BFC8F81440C8F8104001E001F048F923
:1003D000B4B139698C4211D3C4F81880286928B1A6
:1003E000884226BF2061846101F03AF9686938B11A
:1003F0003969884202D36061846101E001F030F91B
:1004000001982D18834468684008400068604BF0EC
:10041000010171604FEADB0446F80BB01F2C23D8B2
:1004200007F1280000EBC4084546BBF1100F38BFA8
:1004300001F016F9386820FA04F1C90705D4012142
:1004400001FA04F404433C6007E0D8F80800396975
:1004500088422CBF054601F003F9C8F80860EE6039
:10046000B560C6F80C8060E05FEA1B2008BF002181
:1004700023D0B0F5803F28BF1F211ED2A0F5807287
:10048000120C02F008029040A0F58051090C01F016
:1004900004018840A0F580431B0CC2F10E0203F05A
:1004A0000203521AD21A984002EBD032D01D2BFA16
:1004B00000F101F0010101EB420107F5987202EB36
:1004C0008100F1610022726132617A6822FA01F3DF
:1004D000DB0707D4012303FA01F1114379600660B9
:1004E000B0611DE002681F291DBF4908C1F1190153
:1004F0000BFA01F1594600E002465068C008C000FE
:10050000584516D002F11003CC0F03EB84034900C9
:1005100018680028F0D13869834204D31E60B261A4
:10052000F660B66001E001F09BF809F10800BDE853
:10053000F68B396990688A4228BF8842F3D3C66037
:100540009660B060F2600020B061EEE72DE9FE4FEA
:1005500004460F46A5692E46904699463146FFF758
:1005600013FEA8F128020168406801EB000AAAF115
:10057000270111F007000EBF0021C1F1080101F0B1
:1005800007010AEB0100A0F12F0B06F110008345D3
:1005900038BFB3460BF11800019039460020009097
:1005A0002046FFF719FE0BF1080010F0070F18BFE7
:1005B00001F056F81B20CBF804000BF1080104F5FC
:1005C000E07090E80C5081E80C500760C0F804809F
:1005D000C0F80C9081600198009900E0001D07228E
:1005E0004260491C00F108025245F7D30129D8BFE7
:1005F00001F036F8B34500F09A80ABEB060B301DE6
:10060000311D50F80B004008400041F80B004BF042
:10061000010171604FEADB0746F80BB01F2F22D8AB
:1006200004EBC70000F12805A846BBF1100F38BF46
:1006300001F016F8206820FA07F1C90705D4012156
:1006400001FA07F70743276006E0A8682169884296
:100650002CBF804601F004F8AE60C8F80C60C6F804
:100660000880F56070E05FEA1B2008BF002123D0FE
:10067000B0F5803F28BF1F211ED2A0F58072120C5A
:1006800002F008029040A0F58051090C01F004012D
:100690008840A0F580431B0CC2F10E0203F0020358
:1006A000521AD21A984002EBD032D01D2BFA00F128
:1006B00001F0010101EB420104EB8102002302F58C
:1006C0009870F16173613361626822FA01F3DB07AC
:1006D00007D4012303FA01F1114361600660B061A0
:1006E0001DE002681F291DBF4908C1F119010BFA5D
:1006F00001F1594600E002465068C008C000584564
:1007000016D002F11003CF0F03EB870349001868DE
:100710000028F0D12069834204D31E60B261F660E4
:10072000B56011E003B0BDE8F04F00F099BF0BE0F9
:10073000216990688A4228BF8842F3D3C6609560D9
:10074000B060F2600020B06103B0BDE8F08F2DE929
:10075000F041704F05463868884608B9FFF723FD19
:10076000B96801EB08002F30491E20EA01018845D5
:100770007BD205F5D876B06828B1326889188A42EC
:1007800073D2884271D300F0ABFF01001CBF0C682C
:1007900011F1010F69D03068201830607268824210
:1007A00038BF02467260A86960BB286908B18142FF
:1007B00000D22961316174610020F06105F12802E5
:1007C000386868624FF0FF3028620020D260926083
:1007D00002F1080353611361801C10322028F5D305
:1007E0004D48854208BFA4F1280228D055F8040CD2
:1007F000C00805EBC002A2F108000A19121A283A33
:1008000001461CE005F5E070024600E092687AB30C
:10081000136857683B449942F8D1137B1F0727D4CC
:10082000AB691768BB4223D3D2F804C06744BB420C
:100830001ED2A444C2F804C0E868A9692218284658
:10084000FFF7CAFC1FE08068C0B103689342FAD189
:10085000027B130712D4026801604368E418446005
:1008600043462846BDE8F041CFE40020BDE8F081D2
:100870002A69914238BF29610A19E5E70023224617
:100880002846FFF763FEE8688045EED2A0EB08003B
:10089000A969E86001EB0802AA6140F0010050601C
:1008A00048F00300486001F10800BDE8F08138B469
:1008B000184B1A6882B94FF480525A604FF4803452
:1008C0004FF0FF329C60DA601A610422124C134D23
:1008D0005A61C4F8BC211D6011F1400F17D2826922
:1008E000AAB1C368283199420BD200F5E0710C68B7
:1008F000A24203D34D682C44A24202D38968002946
:10090000F5D1C16999423CBF4FF0FF31C16132BCA2
:1009100000207047501E0020381A00206859883C7B
:100920002DE9F84F00258946090AC9F1000B08BFD7
:10093000002323D0B1F5803F28BF1F231ED2A1F58D
:100940008072120C02F008029140A1F580531B0C3A
:1009500003F004039940A1F58044240CC2F10E0277
:1009600004F00204D21A121BA14002EBD132D11DB5
:1009700029FA01F303F0010303EB4203074607F5ED
:10098000987858F8230030B31F2B0FBF4C465C08F3
:10099000C4F1190409FA04F4AC46594600E06400B5
:1009A0004268D208D200A2EB09028A4203D21100A7
:1009B000054600F06881426910304FEAD47B50F858
:1009C0002B00002A1CBF824294460028E7D18B46A8
:1009D0006046B0BBBDBB012000FA03F35B00584288
:1009E00003437868034000F04D81584203405B1E8A
:1009F000180B00F01000C340590901F00801CB406A
:100A00009A0802F00402D3405C0804F002040818BB
:100A1000E3401018C3F3400620183044F3401B187D
:100A200058F823000DE008464168C908C900A1EB49
:100A3000090159453CBF8B46054601690029F2D1A1
:100A400040690028F0D1002D00F01C81B868A0EBAF
:100A50000900834580F0168138698542C0F0108115
:100A60006868C008C00009EB0B01884218BF00F09D
:100A7000F7FD05EB0906B54280F00281EC68D5F878
:100A800018A0AC420CD0A8683969884222D3C1684A
:100A9000A94204BFA168A9421CD1C460A0601BE0A8
:100AA00005F11402146834B905F1100214689CB100
:100AB00001E01A46146804F114031968002902BF02
:100AC00004F1100318680028F3D139698A4228BF5D
:100AD000106001D200F0C4FDBAF1000F36D0E96910
:100AE00008EB81000268954209D10460200014D10E
:100AF000E8697968012282409143796026E038698B
:100B0000824508D3DAF81000A84214BFCAF814408E
:100B1000CAF8104001E000F0A3FDBCB1386984427E
:100B200012D3C4F818A0286930B13969884226BFA9
:100B30002061846100F094FD686938B139698842A8
:100B400002D36061846101E000F08AFDBBF1100F07
:100B50000CD2D94449F003006860291D281D50F8C3
:100B6000090040F0010041F8090088E049F0030065
:100B700068604BF0010070604FEADB0046F80BB094
:100B80001F281DD807EBC00101F12804396821FA9C
:100B900000F2D207A34605D4012202FA00F008436E
:100BA000386006E0A068396988422CBF834600F0AF
:100BB00057FDA660CBF80C60C6F808B0F4605EE0A4
:100BC0005FEA1B2008BF002123D0B0F5803F28BF7B
:100BD0001F211ED2A0F58072120C02F00802904074
:100BE000A0F58051090C01F004018840A0F5804374
:100BF0001B0CC2F10E0203F00203521AD21A9840E3
:100C000002EBD032D01D2BFA00F101F0010101EB13
:100C10004201F16100227261326108EB81007A6861
:100C200022FA01F3DB0707D4012303FA01F1114390
:100C300079600660B0611DE002681F291DBF490888
:100C4000C1F119010BFA01F1594600E00246506862
:100C5000C008C000584518D002F11003CC0F03EBB8
:100C60008403490018680028F0D13869834204D30E
:100C70001E60B261F660B66001E000F0F1FC13E1C5
:100C800000F0EEFC0DE18B46A3E6396990688A42DC
:100C900028BF8842F1D3C6609660B060F260002041
:100CA000B061ECE72DE9F84F064688467168484286
:100CB0000140491E080B00F01000C1404A0902F033
:100CC0000802D1408B0803F00403D9404D0805F019
:100CD00002051018E9401818C1F34004281806F559
:100CE000987A2044E14009185AF821104868C00851
:100CF000C0000D46A0EB080909E001464868C0089D
:100D0000C000A0EB080048453CBF81460D4608697D
:100D10000028F2D149690029F0D130698542C0F03C
:100D2000BE806868C00808EB090BC000584518BFB2
:100D300000F096FC05EB08008542009080F0AF8043
:100D4000EF68AC69AF420CD0A8683169884222D301
:100D5000C168A94204BFB968A9421CD1C760B86084
:100D60001BE005F11402176837B905F11002176886
:100D70009FB101E01A46176807F1140319680029AA
:100D800002BF07F1100318680028F3D131698A42C5
:100D900028BF106001D200F063FC002C31D0E9695B
:100DA0000AEB81000268954208D107608FB9E869B3
:100DB0007168012282409143716022E0306984426F
:100DC00005D32069A84214BF6761276101E000F0E4
:100DD00047FCB7B13069874211D3BC61286930B193
:100DE0003169884226BF3861876100F039FC686943
:100DF00038B13169884202D37861876101E000F03F
:100E00002FFCB9F1100F0BD24BF003006860291DC5
:100E1000281D50F80B0040F0010041F80B003DE0A8
:100E200048F00301696049F00100291D41F80800FC
:100E3000009840F80990D6F808804FEAD80BBBF12B
:100E4000200F28BF00F00CFCB8F1000F22D006EBF9
:100E5000CB00776900F12804A246B8F1100F38BF23
:100E600000F0FEFB306820FA0BF1C90705D4012120
:100E700001FA0BF10843306006E0A068316988424E
:100E80002CBF824600F0ECFBA760CAF80C70C7F8D4
:100E900008A0FC60C6F808900098706104E000F0BB
:100EA000DFFB0020BDE8F28F05F10800BDE8F28FFE
:100EB0002DE9FE4F0546AFF30080F52DDFF89C6766
:100EC00080F004810B2D31BF10250B35ED08ED00AE
:100ED0003068EC08E04010F0030F46D0C04300F04B
:100EE0000100041906F1280000EBC408E700D8F857
:100EF00008506868C008C000B84218BF00F0B0FBD6
:100F0000D5F80890454508BF00F0AAFB4D4508BF3D
:100F100000F0A6FB6868C008C000B84218BF00F027
:100F20009FFBC84507D13168012000FA04F421EA8B
:100F3000040434600DE03069814508D3D9F80C0011
:100F4000A84204D1C8F80890C9F80C8001E000F06C
:100F500087FB47F003006860291D281D05F1080480
:100F6000C05940F00100C851F8E0B168A94280F0D2
:100F7000BE80002800F0A1804FF0010808FA04F1BB
:100F8000490000FA04F4484201430C406042044026
:100F9000641E200B00F01000C440610901F008013C
:100FA000CC40A20802F00402D440630803F002031C
:100FB0000818DC401018C4F3400718183818FC4013
:100FC000241806F1280000EBC40AE700DAF80890BC
:100FD000D9F80400C008C000B84218BF00F040FBB8
:100FE000D9F808B0D14508BF00F03AFBD94508BF91
:100FF00000F036FBD9F80400C008C000B84218BFA2
:1010000000F02EFBDA4506D1316808FA04F421EA33
:10101000040434600DE03069834508D3DBF80C002C
:10102000484504D1CAF808B0CBF80CA001E000F0A4
:1010300017FB45F00300C9F804007F1B09F1040108
:1010400047F00100485109EB05000190C751B46811
:101050004FEAD40ABAF1200F28BF00F001FB34B3E5
:10106000CDF800A006F12800756900EBCA0AD34646
:10107000102C38BF00F0F4FA3168009821FA00F221
:10108000D30704D408FA00F00843306007E0DAF828
:101090000800316988422CBF834600F0E1FACAF8A3
:1010A0000850CBF80C50C5F808B0C5F80CA0B760D4
:1010B00009F108040198706150E07068C0B32946D6
:1010C0003046FFF7EFFD040011D047E015F1400F67
:1010D00028BF4FF0FF350AD20B35ED087068ED00E0
:1010E00028B129463046FFF71BFC040036D1B06812
:1010F000A8421DD3411B726910290AD3501970618F
:10110000B16041F001034360415045F00305556073
:101110000BE00021B1607161131D40F003015160CB
:10112000111D095841F00101195002F1080415E0A0
:10113000F06885420DD2401BB169F0604A19B26176
:1011400040F00100506045F003054D6001F10804D6
:1011500004E029463046FFF7FAFA0446AFF3008070
:101160002046FFF7F1BA002800D170472DE9FC476F
:10117000A0F10805AFF30080DFF8E0643269954222
:10118000C0F05982686800F00301012900F0538221
:10119000C1084FEAC109C10705EB090839D42C6819
:1011A00010F0030F00F04982604205449542A144CB
:1011B000C0F041827069854200F0C780E408202CAD
:1011C0005ED2D5F80CA0AF68554508BF00F048FACC
:1011D000BD4208BF00F044FA6868C008C000B0EB28
:1011E000C40F18BF00F03CFA06F1280000EBC40061
:1011F000874205D031698F423FD3F968A9423CD17B
:10120000BA452CD13068012101FA04F420EA040423
:101210003460454580F00F82D8F80440E00740F183
:101220000A82A00700F16881B069804540F0A08083
:10123000F068B5618144C6F80C9049F0010068601F
:101240007069854202D100207061B060F069484544
:1012500080F0F38100213046FFF729FBEDE1824564
:1012600006D03069824508D3DAF80800A84204D1D4
:10127000C7F80CA0CAF80870CBE700F0F1F9C8E78E
:10128000EC68AF69AC420BD0A868904223D3C16828
:10129000A94204BFA168A9421DD1C460A0601CE09E
:1012A00005F114031C6834B905F110031C68A4B1DE
:1012B00001E063461C6804F1140CDCF800100029FE
:1012C00002BF04F1100CDCF800000028F1D19342B9
:1012D00028BF196001D200F0C3F9002F99D0E96945
:1012E00006F5987000EB81000268954209D1046010
:1012F000200011D1E8697168012282409143716038
:1013000087E73069874205D33869A84214BF7C61FA
:101310003C6101E000F0A4F9002C3FF47AAF3169A0
:101320008C42AAD3A761286928B1884226BF2061D0
:10133000846100F095F9686900283FF46AAF31696B
:1013400088429AD36061846163E798F8040000F0F2
:10135000030003287FF45DAFC6F8089049F001014F
:10136000D8F8040040084000C8F8040069600AE0AA
:10137000706980450AD1B06875618144C6F80890EB
:1013800049F00100686045F8099056E1E408E4007E
:10139000A144E408202C3AD2D8F80CA0D8F8087060
:1013A000D04508BF00F05CF9B84508BF00F058F917
:1013B000D8F80400C008C000B0EBC40F18BF00F09C
:1013C0004FF906F1280000EBC400874207D03169CD
:1013D0008F42C0F08480F968414540F08080BA4572
:1013E00007D13068012101FA04F420EA04043460D2
:1013F00077E0824506D031698A4570D3DAF8080073
:1014000040456CD1C7F80CA0CAF8087069E0D8F85C
:101410000C40D8F8187044450DD0D8F80800316950
:10142000884222D3C168414504BFA16841451CD10F
:10143000C460A0601BE008F11402146834B908F11C
:10144000100214689CB101E01A46146804F11403F8
:101450001968002902BF04F1100318680028F3D1AD
:1014600031698A4228BF106001D200F0F9F8002FDC
:1014700037D0D8F81C1006F5987000EB8100026890
:1014800090450AD10460200012D1D8F81C00716880
:10149000012282409143716023E03069874205D385
:1014A0003869404514BF7C613C6101E000F0D8F828
:1014B000BCB131698C4212D3A761D8F8100028B1B1
:1014C000884226BF2061846100F0CAF8D8F8140071
:1014D00038B13169884202D36061846101E000F073
:1014E000BFF849F00100686045F8099070698542CD
:1014F0000BD1C6F80890A0E064086400C8F8044066
:1015000049F00100686045F809904FEAD907202F9B
:1015100022D206F1280000EBC704A046B9F1100F53
:1015200038BF00F09DF8306820FA07F1C90705D4EC
:10153000012101FA07F70743376006E0A068316927
:1015400088422CBF804600F08BF8A560C8F80C508C
:10155000C5F80880EC6070E05FEA192008BF002140
:1015600023D0B0F5803F28BF1F211ED2A0F5807286
:10157000120C02F008029040A0F58051090C01F015
:1015800004018840A0F580431B0CC2F10E0203F059
:101590000203521AD21A984002EBD032D01D29FA17
:1015A00000F101F0010101EB420106F5987202EB36
:1015B000810000226A612A61E961726822FA01F3FE
:1015C000DB0707D4012303FA01F1114371600560C1
:1015D000A8611DE002681F291DBF4908C1F119015A
:1015E00009FA01F1494600E002465068C008C0000F
:1015F000484526D002F11003CC0F03EB84034900C9
:1016000018680028F0D13069834204D31D60AA61B4
:10161000ED60AD6001E000F023F8306A401E3062FA
:101620000BD1D6F8C80100E080680028FCD14FF04B
:10163000FF30306201E000F013F8AFF30080BDE846
:10164000F387316990688A4228BF8842E3D3C56036
:101650009560A860EA600020A861DEE7381A0020E3
:10166000012000F053B8F0B40246106895681318D2
:10167000506803EB5004C00721D54D441FE0F0BC77
:1016800002F10C00704713F8017B05F8017B491E3D
:10169000F9D1A0B1B60813F8011B06F00306032E1A
:1016A00008BF13F8016B01EB06214942801C294455
:1016B00005D011F8016B05F8016B401EF9D1A3426A
:1016C000DDD013F8016B16F0030104BF13F8011B02
:1016D000C91C30090F28DAD113F8010B0F30D6E7F7
:1016E0000749086808B1002070470648C008C000D4
:1016F00008600549C908C900091A0160704700BFA0
:10170000701E00207F2200207824002080B5AFF3D7
:101710000080024A11001820ABBEFBE72600020041
:101720002DE9F84F0FF2B019A2B0D9E90045CDE983
:1017300000452C9EDFF80C9C04918DF8436000213D
:101740000FF29C140D9112944FF0FF36824615460D
:101750001F460FE0AB4644461BF8011B0498D047D8
:101760000028049000F0A6800D98401C641E0D9087
:10177000F2D145442878252807D100210791089106
:1017800009910A910B910C910FE06A463146284667
:1017900000F0ACFF5FEA000801D10D98A4E0D9D5B4
:1017A0004FF00108E5E741F0010115F8010F20288D
:1017B000F9D023280CD02B2804D02D2805D0302890
:1017C00009D079E041F00201EFE741F00401ECE7D4
:1017D00041F00801E9E741F01001E6E700200F9031
:1017E00009E00F98484505DA00EB800302EB43025D
:1017F000303A0F926D1C2A78A2F130000A28F0D3FB
:101800002A782E2A18BF0E9623D115F8010F2A2800
:1018100007D1386838606D1C50F8042B38600E9280
:1018200017E02D280CBF15F8010B002000220E92A6
:101830000AE040B90E9A4A4505DA02EB820403EB4E
:101840004403303B0E936D1C2B78A3F130020A2A1F
:10185000EFD3ADF840101298297800F053FF08B18B
:1018600015F8010B8DF842009DF84200682804BF6E
:101870002978682903D162208DF8420007E06C289E
:1018800004BF28786C2803D171218DF842106D1C9B
:1018900013A806903A4615F8013B02A9504600F0FD
:1018A00063F838B913AA02A9504600F0C5F9002818
:1018B0007FF560AF304617E02A288FD13A683A604A
:1018C00052F8040B3A6000280F9003D540420F9065
:1018D00041F004016D1C93E70000000000000000CF
:1018E000686A6C747A4C000023B0BDE8F08F6228FF
:1018F00020D0682811D06A2803D06C2827D07128FE
:1019000025D10868C01D20F007000860D0E9002339
:1019100008300860194610467047002A0A680A60B5
:10192000106803D0121D0A6000B217E0121D0A6091
:1019300080B217E0002A0A680A60106803D0121DFE
:101940000A6040B20AE0121D0A60C0B20AE0002A32
:101950000A680A60106803D0121D0A60C117704738
:10196000121D0A60002170477CB50D4611461C46C9
:101970002E69B4F1250200F04D811C3A00F08680FA
:10198000121F022A40F282800E3A00F00781521F95
:101990005AD0093A7AD0921E16D0521E35D0521E15
:1019A000022A73D9121F30D0521F00F09A80521EA3
:1019B0004AD0521E00F0E480D21E00F0FD80921E3C
:1019C00042D0D21E40D02BE195F83A206C2A09D0A3
:1019D0006869421C6A610A680A6052F8043B0A603E
:1019E000335427E10A680A6052F8043B0A60002178
:1019F000009301914FF0FF322A6329466A4600F0B6
:101A000096F9002840F1168101E195F83A0001228B
:101A1000FFF76DFFC5E900010023994204DA686908
:101A2000411C69612D210DE0288F810704D568696B
:101A3000411C69612B2105E0C00722D56869411C62
:101A40006961202131541CE095F83A000022FFF72B
:101A50004EFFC5E9000195F83800010711D5D5E919
:101A600000230020834208BF82420AD044F02000B5
:101A7000782806D1686930213154401C411C6961C5
:101A80003454214668693044E86083E00868C01D2A
:101A900020F007000860D0E9002308300860C5E99D
:101AA0000023D5E90001C80F04D06869411C6961B1
:101AB0002D210DE0288F810704D56869411C6961DB
:101AC0002B2105E0C00704D56869411C696120210C
:101AD000315468693044E8602146284600F032FA03
:101AE000A8E005F13A02507820B14FF0FF340FF62C
:101AF000FC2070E01078622808D0682824D06A287A
:101B000012D06C282ED071280ED02BE00A680A6003
:101B100052F8040B0A6020B94FF0FF340FF6E420AE
:101B200059E0E96A017085E00A680A6052F8040B1E
:101B30000A6020B94FF0FF340FF6C8204BE0EA6A84
:101B4000D317C0E9002375E00A680A6052F8040B55
:101B50000A6020B94FF0FF340FF6A8203BE0E96A95
:101B6000018067E00A680A6052F8040B0A6020B935
:101B70004FF0FF340FF68C202DE0E96A016059E048
:101B80000A680A6052F8040B0A600021C5E90001E6
:101B9000EE607821284600F029F94BE06C2285F8A8
:101BA0003A200B680B6053F8042B0B6052BB4FF0CC
:101BB000FF340FF684200EE095F83A206C2AF0D01E
:101BC0000868086050F8044B0860EC603CB94FF0BE
:101BD000FF340FF6482000F0A1FD201A76BD2E6BD1
:101BE000002E04D5204600F0BBFD044608E0324636
:101BF0000021204600F0D0FD002814BF041B34460D
:101C0000AC6117E0294600F092F8002812D54FF099
:101C1000FF3076BD6869411C69612521315409E0B6
:101C20006969481C686125227254210002D0411C58
:101C300069613454002076BD2DE9F0410E46054619
:101C4000716B7069B46A091A306A091AB069091AA5
:101C5000706A091AF069091A96F838000C1B4107D6
:101C600090460DD4002C0BDD2746B0682021A847F4
:101C70000028B06057D0F06A401C7F1EF062F4D19B
:101C8000736942463146284600F099FC00284AD143
:101C9000376A002F0ADDB0683021A8470028B060FD
:101CA00041D0F06A401C7F1EF062F4D1B369F26843
:101CB0003146284600F083FCA8BB776A002F09DD77
:101CC000B0683021A847B06068B3F06A401C7F1E3E
:101CD000F062F5D1F068B169F369421831462846DF
:101CE00000F06DFCF8B9B76A002F09DDB06830214B
:101CF000A847B060B8B1F06A401C7F1EF062F5D111
:101D000096F8380041070BD5002C09DDB06820217A
:101D1000A847B06038B1F06A401C641EF062F5D18B
:101D20000020BDE8F0814FF0FF30BDE8F0812DE9E3
:101D3000F8470D46A3B02F6B002F8146904648BF51
:101D40006FF0004700F054FD696B40180FF6041166
:101D50008128D1E90023CDE9012328BF4FF0FF30CE
:101D60003ED20024002F2FDDD8F8001001AA6846CB
:101D700000F0BEFC0646002E35D4D8F8000008B9A5
:101D8000761E30D4B7421FDB6869301881280AD329
:101D90000020686303AA29464846FFF74DFF040068
:101DA00012D40020686103A8D5F814A03246694611
:101DB000504400F023FDB244C5F814A058F8040BB9
:101DC000002818BFBF1BCDD12CB903AA294648460D
:101DD000FFF732FF044614B90020686168632046AB
:101DE00024B0BDE8F0874FF0FF34F8E72DE9FC4759
:101DF00004468A462569BAF16F0F08BF082605D048
:101E00004AF02001782914BF0A2610263C27D4E97D
:101E10000023BAF1640F18BFBAF1690F90469946D2
:101E200006D100218B4203DAD8F1000869EB490999
:101E30000020814508BF80451FD1206BE8B9082EDE
:101E40004CD194F83800010748D530203B2785F85D
:101E50003B0043E000280ED594F8380000F0140051
:101E6000102808D1626B6069121A206A121A511A7E
:101E70000029C8BF2162BDE8F3878DF800A0404665
:101E800049463246F31700F00DFD3032D2B27F1EC4
:101E90003A2A019704DB9DF80000A0F151018A184D
:101EA000EA55404649463246F31700F0FBFC8046AF
:101EB00089460020814508BF804503D0E068E919C4
:101EC0008842DCD3082E09D194F83800010705D5E3
:101ED000E95D302902D07F1E3020E855C7F13C0172
:101EE000A161E819E060206B8142B3DA411A2162F6
:101EF0004FF6EF70218F01402187BDE8F3872DE970
:101F0000D04306460F4614464FF00008DFF83894D9
:101F100012E0E00707D542464B463046394600F00E
:101F2000D9FD06460F464046494642464B4600F01C
:101F3000D1FD641080468946002CEAD130463946EE
:101F4000BDE8D0832DE9F34F054641F020048DB064
:101F5000D5E90089612C02AE09D0286B002848BF62
:101F6000062003D408BF672C01D101202863D5E9DE
:101F7000002358004015401C0ED119030CD003203B
:101F8000A8619DF8380061381A2802D20FF2CC619E
:101F900011E00FF2CC610EE058004015401C0FD14B
:101FA00019030DD10320A8619DF8380061381A2863
:101FB00014D30FF2B461E868032200F01FFCD3E1F0
:101FC000194621F00043B3F5801F10460DD20027BB
:101FD000BB4208BFBA42019703D111E00FF28461FE
:101FE000E9E701AA00F048FE0AE0DFF8607307EBBA
:101FF0001352DFF85C3301921940DFF8583319436C
:10200000C5E90001612C0ED1E86830210170811C06
:10201000E9609DF8381061290CBF78215821417082
:102020006869801C6861D5E900AB2BF00043002093
:102030002AF00002834204BF8242002300F05A814A
:10204000612C40F0A980286B00284CBF2120401C47
:1020500000904046009F7F1C49460022002300F06C
:1020600043FED94601988DF8082038BF89F0004911
:10207000001F0190002FD0460DF1090040F3498167
:1020800040F2FF71DFF8D0B20C9106464046494657
:102090000022002300F040FE80F03A814800400D0D
:1020A00000F11C0210D0002A0EDD0C98824205DBE4
:1020B00009F0004040EA0B01002013E0A44808406A
:1020C00040EA025140460DE029F00043002028F08C
:1020D0000002834208BF82420FBF40461C22404696
:1020E00000F032FE8046894600F0CCFEFF1F002F34
:1020F000044609DD00F0E4FE02460B464046494630
:1021000000F0F0FE80468946F01D072104E004F04F
:102110000F0200F8012D2411002C01DD491EF6D517
:10212000491E5CBF002200F8012DF9D5ECE000202B
:10213000194602AA0A4400E05B1E12F80149491E32
:102140008442F9D00F2804D10DF10900425C521CE1
:102150004254002904D50198001D02AE5B1C019079
:10216000591E12D49DF838007218A0F13A0417785D
:1021700030375FFA87F8B8F1390FC8BFA044491E5D
:1021800002F80189F3D58DF83800286B002840F15A
:10219000B080591E2963ACE0404649460022002326
:1021A00000F0A2FD019938BF89F0004947F297502D
:1021B00041436A4A91FBF2F20192D2F1070204DD37
:1021C00040464946FFF79BFE0AE052420020644920
:1021D000FFF795FE02460B464046494600F0F4FEE6
:1021E0008046662C286BDFF87CB106BF019F0A375A
:1021F00006273F18142FC8BF142730208DF8080079
:1022000089460DF1090000E03046002F34DD064616
:102210004046494600F0FCFF01460A4606F1080325
:1022200004200A26B2FBF6F606EB860EA2EB4E025F
:10223000303203F8012C0A22B6FBF2F202EB820ED6
:10224000A6EB4E063036401E03F8026DE9D1083F7A
:10225000002F03F10806D7DD084600F0EDFF024627
:102260000B464046494600F03DFE00225B4600F02A
:1022700031FC80468946CBE70DF10901401A0DF18A
:10228000090604E00199491E401E0191761C31782F
:102290003029F7D0662C02D10199491C03E0652C46
:1022A0000CBF012100212B6BCB189842B8BF431EF5
:1022B000002B1ED4834204DAF05C3528A8BF3920F5
:1022C00000DA30201946721E02EB010800E05B1EA6
:1022D00018F80199491E8145F9D0392802D1705C5E
:1022E000401C7054002904D50198401C16465B1C04
:1022F0000190019800B200901BB29DF83810324650
:10230000284600F034F82FE0C61D002F3FF7BEAE80
:1023100030460DF10901401A009903468842C8BFB2
:102320000B46002B0DF109063FF52FAF8342BFF698
:10233000FEAE0DF10900C05C07287FF7F8AE0F2054
:10234000F6E60000CBCCCC0C0000244002FCFFFFE2
:10235000FFFF0F800000E03F0000F07FA08601003B
:102360000000F03F84D797410FB0BDE8F08F2DE912
:10237000F84E83B006468B4692461C4600F0BAF9EA
:10238000002C406A376B90F8009002DC01240FF2B9
:10239000DC2ABDF930504BF02000662808BF6D1CC8
:1023A00012D0672877D115F1040F7ADBBD4278DAB5
:1023B00096F838006D1C010702D4BC42B8BF27460E
:1023C0002DB27F1B48BF00272DB2F068B169002DE8
:1023D00022DC4A1C30234354002F03DC96F83800DB
:1023E000010703D5F06800F80290521CEF42B8BF15
:1023F0007D422DB2EF196842A742B8BF3C46B26198
:10240000706224B2F461F068B36922465146184400
:1024100000F0F4F93F1B18E02A469442084416DA0B
:102420002246514600F0EAF9B0692018B0612C1B31
:10243000002F746203DC96F838100A0705D5F1689E
:1024400001F80090F069401CF061B762A0E05146CD
:1024500000F0D4F9B0692818641B002F03DC96F84B
:1024600038100A0703D5F16801F80090401CB061EC
:1024700024B2A742B8BF3C46F068B36924B22246F2
:102480000AEB0501184400F0B9F9B0692018B061F1
:102490003C1B74627CE0BBF1610F14D14FF0700BF8
:1024A00016E0BC4204DA96F838100A0758BF2746EF
:1024B0007F1E48BF0027BBF1670F14BF4FF0450BCD
:1024C0004FF0650B04E0BBF1410F08BF4FF0500B1C
:1024D000B169F368481CB061002F1AF8012B5A54F7
:1024E00003DC96F838100A0717D5F168431CB3616E
:1024F00001F80090002F10DD641E24B2A742B8BF7F
:102500003C46F06824B222465146184400F076F961
:10251000B0692018B0613F1B7762F068B169084468
:10252000002D80F800B003D42B214170811C03E002
:102530002D2141706D42811C00206A460AE02B4625
:102540000A2493FBF4F505EB8504A3EB440302F89E
:10255000013B401C2DB2002DF1DC012806DC4BF0C4
:102560002002652A04BF302201F8012B48B930202F
:1025700001F8010B07E0401E1DF80020303201F881
:10258000012B0028F7DCF068B2691044091AF161E8
:1025900096F8380000F0140010280DD17169B06968
:1025A0004118706A4118F0694118B06A4118706B9F
:1025B0008142BCBF411A316204B0BDE8F08EF8B56B
:1025C00005460E4617461C46002074B117F8011B3D
:1025D000B068A847B06030B1F06A401CF0620020DB
:1025E000641EF3D1F2BD4FF0FF30F2BD7072696E20
:1025F00074665F733A20256E20646973616C6C6F3A
:10260000776564007072696E74663A206261642056
:10261000256E20617267756D656E74007072696EEB
:1026200074665F733A20626164202573206172676B
:10263000756D656E740000007072696E74665F730C
:102640003A2062616420256C7320617267756D6544
:102650006E74000000000000000000006E616E005B
:102660004E414E00696E6600494E46003000B1F59D
:10267000807F02D34FF0FF30704701700120704718
:102680000078401E8041C043C00F70471B48704710
:1026900030B45368D418042B09DA41B1057804F832
:1026A000015B10F8015B15B15B1C491EF3E7536039
:1026B00030BC704738B514461D4661B1FFF7E8FFDE
:1026C00061686A6B204690476FF00102811A02D060
:1026D000491E03D005E06FF0010032BD4FF0FF301E
:1026E00032BD0021616032BDDA6B1047034BE1E778
:1026F000024BF9E7024870470000000090010020FB
:10270000580100200278C9B28A421AB11CBF10F8E1
:10271000012FF9E718BF00207047000080B508B905
:102720000FF21C0005490B681BB1222200219847BB
:1027300001E0FEF795FF222002BD00006C1E002084
:10274000636F6E73747261696E742068616E646C1D
:1027500065723A20626164206D657373616765001C
:1027600000F10103810704D010F8011B89B1810732
:10277000FAD10268B2F10131914311F0803F04BFF8
:1027800050F8042FF6E710F8011B11B110F8011BE7
:10279000FBE7C01A70470000C9B2830706D0521E7B
:1027A00022D310F8013B9942F7D11FE0083A13D326
:1027B00002F1040241EA012141EA014150F8043BDF
:1027C000121F21BF4B40A3F1013C2CEA030C1CF06B
:1027D000803FF3D0C9B2001F083210F8013B521EEF
:1027E00028BF91EA030FF8D818BF0120401E704798
:1027F00080B5FFF74BFF006C02BD000062B38B0792
:1028000008D0521E11F8013B00F8013B00F0248073
:102810008B07F6D1830740F0208000BF103A07D322
:1028200030B4B1E83810103AA0E83810F9D230BC12
:10283000530724BFB1E80810A0E8081044BF51F8BE
:10284000043B40F8043BD20724BF31F8022B20F8A8
:10285000022B44BF0B7803707047121F17D35B0025
:1028600009D151F8043B20F8023B1B0C121F20F841
:10287000023BF6D20BE051F8043B00F8013B1B0A87
:1028800020F8023B1B0C121F00F8013BF3D238BFAB
:10289000121D521E24BF11F8013B00F8013BF8D86D
:1028A00070470000B3BBD9B1B2F5803F7DD2022A98
:1028B0001ED98C46B1FBF2F102FB11C31B0443EAA3
:1028C0001043B3FBF2FC02FB1C3380B240EA03432B
:1028D000B3FBF2F002FB103240EA0C4000237047D9
:1028E000022A05D98446B0FBF2F002FB10C2704701
:1028F0004AB105D100F0010249085FEA3000704793
:1029000000220023704700F0A5BC0B00020000214C
:1029100000207047904271EB030CF6D3B3F5803F73
:102920002FD2F0B5B3FA83F7B1FA81F4A7F10F0E05
:102930003D1B5340CEF1200602FA0EF2F341534004
:10294000B5F10F0746D80F3C2C444140C4F1200696
:10295000A040F1414140B1FBF3F603FB1611A2FB8D
:102960000645001BA94102D2761E8018594180EA13
:10297000010221FA0EF362FA0EF200215A403046AB
:10298000F0BD30B4B1FBF3FC03FB1C11A2FB0C4502
:10299000001BA94103D2ACF1010C8018594130BC95
:1029A00002460B46604600217047B2F1807F65D336
:1029B000F0B5B2FA82F7B1FA81F4C7F10F063D1B08
:1029C00022FA06F307F1110EF24120355A40B5F113
:1029D0000F07B8D94140C4F12006A040F141414061
:1029E000B1FBF3FC03FB1C11A2FB0C45001BA9412E
:1029F00003D2BCF1010C801859410F2F12D30F3FA5
:102A0000C90341EA5041B1FBF3F603FB1611A2FBE7
:102A10000645D4EBC030A94102D2761E8018594138
:102A200046EACC3C07B34140C7F12006B840F1412B
:102A30004140B1FBF3F603FB1611A2FB0645001B58
:102A4000A94102D2761E8018594180EA010221FA7A
:102A50000EF3C7F1200462FA0EF20CFA07F05A40A6
:102A60002CFA04F13043F0BD80EA010221FA0EF3A2
:102A7000002162FA0EF260465A40F0BD8C46B1FB6E
:102A8000F2F102FB11C31B0243EA1063B3FBF2FC39
:102A900002FB1C331B024CEA002043EA1063B3FB29
:102AA000F2FC02FB1C331B024CEA002043EA1063D9
:102AB000B3FBF2FC02FB1C331B024CEA002043EA8E
:102AC0001063B3FBF2FC02FB1C324CEA0020002333
:102AD00070470000B0B581EA030C0CF0004C40F2E6
:102AE000FF7515EA11541DBF15EA1357AC42AF42EA
:102AF00039E0E41923EA455343F48013C90241F055
:102B0000004141EA505EC7021100A7FB0202002803
:102B10004FF00000EEFB01204FF00001E3FB072126
:102B200018BF42F00102401800214941E3FB0E01A9
:102B3000A4F580640F0302D252004041494154F190
:102B400001046CDD470872F1004250F1000051EBC6
:102B50000451A1F580115CBF41EA0C01B0BD4CEA03
:102B600005510020B0BD05EA1357AC4214BFAF4277
:102B700041E050EA410E1CBF52EA430E02E06146BA
:102B80000020B0BD24423C441BD15FEA070EF6D0C2
:102B9000090302BF01460020AEF1140EB1FA81F71D
:102BA000AEEB070401FA07FE0C37C7F1200100FA6B
:102BB00007F7C8404EEA000E23EA455343F480135A
:102BC000A2E733F00043B3FA83F704BFB2FA82FE00
:102BD00077440B3FE41BB7F1200E2FBF02FA0EF330
:102BE000BB40C7F1200E22FA0EFE38BF43EA0E03A7
:102BF000BA40641C82E750EA410E14BF52EA430E09
:102C00006FF000014FF4001717EB430F8ABF19460E
:102C100017EB410FB5E74CEA05510020B0BDD4F1E8
:102C20000104B4F120070FDAC4F12007520828BFCD
:102C300042F0010210FA07F501FA07F7E1BF2A4353
:102C4000E0403843E1400FE0352C98DCC7F1200428
:102C500052EA400220FA07F218BF42F0010231FAAC
:102C600007F0A1400A43002172F1004250F1000038
:102C700051EB0C01B0BD000010B5144600F002F895
:102C8000226010BDC1F30A5343B14A0012F5001F80
:102C900028D2A3F2FE32A1EB0251704750EA410C58
:102CA00020D001F0004C31EA0C01B1FA81F204BFEE
:102CB000B0FA80F3D2180B3AB2F120032CBF00FA1D
:102CC00003F1914041EA0C013EBFC2F1200C20FA11
:102CD0000CF319439040524240F2FD33D21A01EBFB
:102CE00003517047002270474FF4001C1CEB410F4A
:102CF00094BF1CEB430F09E041EA030C50EA4C0C73
:102D000052EA0C0C03D2994208BF9042704714BF9C
:102D10008B428242704700004FF4001C1CEB410FB5
:102D200094BF1CEB430F09E041EA030C50EA4C0C42
:102D300052EA0C0C03D28B4208BF8242704714BF88
:102D40009942904270470000124254D440F2FF7CF6
:102D50001CEA11530FD0634531D09B1863453CBF2B
:102D600001EB0251704701F0004141EA0C51002093
:102D7000AFF30080704750EA410320D001F0004CCF
:102D800091EA0C011CD0B1FA81F30B3B9A420DD9A8
:102D9000D21A994051EA0C01C3F1200C20FA0CFC24
:102DA00061449840531C40F2FF7CD7E7914041EAD0
:102DB0000C01C2F1200C20FA0CF31943904070472B
:102DC000B0FA80F31533202BE0D3202AEED3203A3B
:102DD000203B9A4209D9D21A00FA03F141EA0C01C8
:102DE0000020531C40F2FF7CB8E700FA02F141EAF0
:102DF0000C0100207047524240F2FF7C1CEA115344
:102E00000DD06345DBD0B2EB030C3CBFA1EB02510C
:102E100070470CF1010221EA035141F4801150EA9C
:102E2000410CCCD001F0004C352A27DC30B481EACB
:102E30000C01B2F1200309DAC2F12003044601FAC1
:102E400003F5D0402843D1409C400CE0C3F1200260
:102E5000450020FA03F418BF44F0010421FA03F0FE
:102E600091400C43002174F1004550F1000051EBFA
:102E70000C01244230BC7FF47BAF704761460020D8
:102E800076E70000C1F30A5340F2FE329B1A14DDCC
:102E9000D3F120034FEAE17208DDC90241EA505143
:102EA00041F00040D84080185040704703F2E130B4
:102EB00010B1D24382F000407047002070470000FC
:102EC000C11768B14840401AB0FA80F29040D21C55
:102ED000C907C2F5846241EA025202EBD0214005E3
:102EE0007047000070B44FF0004591EA030F40F1C5
:102EF000B3816B40841A71EB030603D2001BB1410E
:102F0000121973414FF4001C1CEB410F34BF7CEBD2
:102F1000430442E00C0DA4EB1356352E4FDC45EA7A
:102F2000C323DB0A45EAC121C912B6F120050DDD34
:102F300063FA05F6EB4086EA0305124218BF45F036
:102F40000105C01851F100010CD213E062FA06F538
:102F5000F2405540F3415A40B340F3405A40801884
:102F6000594107D349085FEA30005FEA350528BFB9
:102F700045F0010501F58011420875F1004250F15C
:102F8000000041EB04514E0016F5001F70BC38BF25
:102F900070470020090D090570471CEB410F10D246
:102FA00052EA43060BD0BCEB410F05D80C0DAB43E6
:102FB000661E342EB6DD02E0AB438018594170BC6A
:102FC000704770BC70470000F0B540F2FF7581EAB1
:102FD000030C0CF0004C15EA11541DBF15EA1357F1
:102FE000AC42AF42E5E0BC41C1F31301C3F31303AC
:102FF000801A994143F4801304D2641E4000494171
:1030000080185941C90241EA5051B1FBF3F603FB64
:103010001611A2FB0675D7EBC020A94102D2761E7D
:1030200080185941C90241EA5051B1FBF3FE03FB3C
:103030001E11A2FB0E75D7EBC020A94103D2AEF141
:10304000010E80185941890241EA9051760546EAFD
:103050008E2EB1FBF3F603FB1611A2FB0675D7EB20
:103060008020A94102D2761E80185941C90241EA46
:1030700050514EEA060EB1FBF3F603FB1611A2FB0C
:103080000675D7EBC020A94102D2761E801859419F
:10309000C90241EA5051B1FBF3F703FB1711A2FB40
:1030A0000735D3EBC020A94167F100070CBF0042F0
:1030B00047F0010766F3D5274FEA1E31B80814F52B
:1030C000806412DDBD0775F1004250EB0E5051EBEC
:1030D000045111F5801F5CBF41EA0C01F0BD4CF0BA
:1030E0007F6141F0E0410020F0BDBD076D0840EA7E
:1030F0000E5041F48011D4F10104B4F120060ADA33
:10310000C4F120060200E04001FA06F3E140184352
:10311000B24015430EE0342C13DCC6F1200445EA1E
:1031200040056D0820FA06F2154321FA06F0A14089
:103130000D43002175F1004250F1000051EB0C01EC
:10314000F0BD00205FEA0C01F0BDCFB992185B41E1
:10315000B3FA83F704BFB2FA82F6BF190B3FB7F197
:1031600020062FBF02FA06F3BB40C7F1200622FA61
:1031700006F638BF3343BA401CB1E419641E33E786
:103180007F4231F00041B1FA81F404BFB0FA80F619
:10319000A4190B3CB4F120062FBF00FA06F1A140A0
:1031A000C4F1200620FA06F638BF3143A0403C1B8C
:1031B0001AE7AC421ABF05EA1357AF4212E050EAD1
:1031C00041061CBF52EA4306BFE750EA41073046BA
:1031D00061461CBF41EA0551F0BD52EA430C08BFED
:1031E000C143F0BD00204FF4001616EB410F98BF0D
:1031F00016EB430F08BF16EB410F24BFC14305E098
:1032000016EB430F0CBF61464CEA0551F0BD0000C0
:10321000400D491840EA81200CD2490DA1F580618A
:10322000491C40F0004005DBD1F11F0154BFC840EC
:10323000C017704700207047014648B1B0FA80F1CE
:103240008840C91CC1F58461090501EBD021400506
:103250007047000070470000841A71EB030604D227
:103260006E40001BB141121973414FF4001C1CEB5E
:10327000410F34BF7CEB430682E00C0DA4EB1356E8
:10328000362E7BDC012E45EAC32341DC43EA525350
:1032900012BFD20292025B08240545EAC12141EA2D
:1032A0005051D2EBC020994125D407D1B0FA80F615
:1032B00010FA06F162D00020203608E0B1FA81F65B
:1032C000B140C6F1200220FA02F21143B0404FEAA9
:1032D000F474B4EB465434F001064FEA74040AD88F
:1032E000D6F50016760D04F00044F04061FA06F2BF
:1032F0005040F1404840C00A40EA415021F00041AE
:1033000028BF5FEA500550F1000044EBD12135E0C1
:10331000DB0A45EAC121C90AB6F120050EDD42EA01
:103320000242120CC5F1200603FA06F6EB4042EA0F
:1033300006056D42984161F100010DE062FA06F563
:10334000F240554063FA06FC82EA0C02F3405A4010
:103350006D42904161EB030111F4801F05D1641EA1
:10336000620502D06D004041494121F480114308BB
:1033700075F1004350F1000041EB045170BC7047FF
:103380001CEB410F15D223F0004352EA43060BD049
:103390004FEA4C0CBCEB410F04D80C0D661E342ECA
:1033A000B7DDEBE7801A994150EA410608BF0021DA
:1033B000E4E708BF1CEB430F28BF6FF00001DDE717
:1033C000F8B5040001D10120F2BD04F13C05687894
:1033D00020B900212970204600F0A2FE00F054F828
:1033E00000F0C0FF0146DFF8C801DFF8C831B1FBCB
:1033F000F0F2206842606068984206D34FF49670FD
:1034000042434FF47A76B2FBF6F22768521C3A62D6
:1034100066689E4208D27600B1FBF6F0C0F30B015D
:10342000042913D2042011E0A06820B906EB460657
:10343000B1FBF6F005E019225643B1FBF6F040F47B
:10344000804001050CBF012040F400402168C861A4
:10345000E269206A0243206802602169E068014352
:10346000206881606169A06901432068C1602068AB
:10347000016841F00101016000206860202068704F
:1034800000202063A870F2BD2420687020680168C5
:1034900049084900016070472DE9FC4700F0ACF88D
:1034A00000F080F843D100F09FF800283FD1387831
:1034B00001283CD000F064F8212000F04FF800F023
:1034C000ACFC40B17868042802D1002139702AE0B0
:1034D0000020387029E000F039F8308D002829D01C
:1034E00000F076F8C8B900F067F800F079F8308D90
:1034F000401E308531684A69530706D580B220B135
:10350000706A421C726200F018F800F05CF8002843
:10351000E3D07868042808D102E07868042804D150
:10352000306800F07DF8012002E0032000E0022076
:10353000BDE8F68700F066F8FAE700780861708D5C
:10354000411E7185308D411E318570470090306875
:1035500041690091806900900099704778702A460F
:103560001020B870414600207860C6F82490A6F874
:103570002AA0DFF8A800F062708D308530467047D1
:103580000121397030680168CA0703D4026842F02B
:1035900001020260234630680A9D016821F400613F
:1035A0000160704706F13C07044678782028704790
:1035B00040420F00A1860100706A411C71623168AF
:1035C00000780861704722462946304600F049BD20
:1035D00022462946304600F02ABD308D411E3185F5
:1035E000708D411E71857047009419230122DFF808
:1035F0009013304600F0A4BC0646884691469A4691
:1036000000F0FABE3068016841F4007101602020CA
:1036100078700020B8703870704700000000FFFF1D
:10362000016841F4007101607047DFF89808E062BA
:1036300070472068016841F48071016070472DE98E
:10364000F84F044604F13D022168DFF87C88D1F888
:1036500018904E694F685078DFF8A455DFF86CA8D1
:10366000DFF86CB8DFF86CC8102818BF40286ED19E
:1036700016F0011F04F144032ED0B8053ED5507852
:10368000402809D1D86818B91A6802F0FE0221E072
:10369000186840F0010026E02069B0F5804F0BD19A
:1036A0001278212A03D1186800F0FE001CE01A6885
:1036B00042F00102D2B20DE0D86820B900F0C6F89D
:1036C00042F0F00206E0D868012817D100F0BEF8F9
:1036D00042F0F1020A6111E0DFF8FC07064205D072
:1036E000BA050BD51868C0B2086107E016EA0C0FDE
:1036F00004D0B80544BF204600F0FAF919EA0B0FD0
:1037000012D016EA0A0F07D0780505D52E4203D14C
:103710002046BDE8F24FABE02E4245D0B8055CD55F
:103720002046BDE8F24F07E116EA080F07D07805FA
:1037300005D52E4203D12046BDE8F24F49E12E4285
:1037400032D0B80549D52046BDE8F24F7DE116EAF2
:103750000C0F12D0B8051AD58A6989690020530761
:1037600058BF01200A060146204654BFE268A269FC
:10377000BDE8F84F92B200F045BEDFF860070642A0
:1037800005D0BB0503D52046BDE8F24F54E219EA47
:103790000B0F2CD016EA0A0F1CD078051AD52E4232
:1037A00018D11378608D00284ED0606A451C656280
:1037B0000078086100F050F808BF292B44D100F0D0
:1037C00051F821202063282010702046BDE8F24FD8
:1037D00000F019BE2E4237D0B80535D5608D0028CF
:1037E00032D0606A421C62620078086129E016EA01
:1037F000080F1BD0780519D52E4217D11378608D8C
:1038000010B3606A451C65620969017000F024F814
:1038100008BF2A2B18D100F025F822202063282089
:1038200010702046BDE8F24F00F0EEBD2E420BD0E6
:10383000B80509D5608D38B1606A421C62620969B9
:103840000170608D411E6185BDE8F18F1A68120418
:10385000D20D02F006027047608D411E6185608DB9
:10386000002870472068416821F4806141607047FA
:1038700038B500F13D0213785478C56A018D0029EE
:1038800008BF212B16D1042D1EBF082DDFF83416DA
:103890008D4202D000F080F809E000F089F804D1F0
:1038A0000023537000F0B1FD44E00021517000F09E
:1038B000ADFD3FE0212B03D0402C08BF222B39D196
:1038C000418D11B900F0BBF834E0517840292FD177
:1038D00000F14803996889B900685968012905D140
:1038E0001A68D2B202619868801C05E01968090460
:1038F000090E01619868401C98601BE099680129D5
:1039000007D11A680068D2B202619968491C9960AF
:1039100010E0996802290DD11378222B05D1006897
:10392000016841F48071016004E01278212A01D11C
:1039300000F028F8002032BD10B5C36A00F13D0246
:103940001478212C1AD1418D11B100F01BF815E02B
:10395000042B1EBF082BDFF86C158B4202D000F041
:103960001BF809E000F024F804D10023537000F0A4
:103970004CFD03E00021517000F048FD002010BD17
:1039800002001000416A4A1C426202680978116113
:10399000418D4A1E4285704701684B6823F4E063FD
:1039A0004B6011210163002151702021117070477B
:1039B00001684B6823F4E0634B6001680B6843F4D3
:1039C00000730B60002101632021117051784029A0
:1039D000704710B500F13D02117822292DD1418D9B
:1039E000042907D300F074F8418D032925D100F094
:1039F00026F822E0012918BF00291ED100F070FA34
:103A00004B6823F4E0634B60416A4B1C43620368DC
:103A10001C690C70418D4B1E4385002120231370BF
:103A200001635178402904D10023537000F0EFFC6A
:103A300003E00021517000F0EBFC002010BD006895
:103A4000416821F480614160704780B5C16A428D50
:103A5000042A02D100F046F836E0428D032A04D150
:103A600000F040F800F0DBF82EE0428D022A2BD166
:103A7000022918BF012906D100F0D7F80B6843F4DA
:103A800080730B6004E001680A6842F400720A6007
:103A900000F01EF800F01CF801684A6822F4407239
:103AA0004A6000F13D0120220A70002202634A7838
:103AB000402A04D100234B7000F0A9FC06E000224C
:103AC0004A7000F0A5FC01E000F002F8002002BD01
:103AD000416A4A1C4262026813690B70418D4A1E9A
:103AE0004285704701684A6822F480624A607047E4
:103AF00038B500F13D014A78C36A046B0D78222D78
:103B000077D1016D002908BF402A02D1002200921E
:103B100071E0016D002904BF0269B2F5404F09D17F
:103B2000009100F075F80A6842F480720A60016D35
:103B3000491C5CE0418D11B9002200922AE0418DC0
:103B400001292ED1DFF87C2393420CD100F06DF8CF
:103B50004A68130510D4002200924B6900938A69C9
:103B60000092009B18E0042B1CBF082B122C0DD0D8
:103B70000168C26A022A04D00B6823F480630B60D8
:103B80002CE00A6842F480620A6027E000F047F8FF
:103B90000021009100F03CF80A6842F400720A60CB
:103BA00024E00168428D022A0CD1C36A0A68022B04
:103BB00009D022F480620A6001680B6843F4006354
:103BC0000B6003E00A6842F480620A6001684A6898
:103BD000130503D54A6842F480524A6000210091DF
:103BE00001684A69009289690091009A0021016583
:103BF00004E000210091006800F004F8002032BDCC
:103C000004000100416900918069009000997047AB
:103C100001684A6900928B690093009A70470168B5
:103C20000A6822F480620A60704701680A6822F418
:103C300080620A60016870477CB500F13D0213782C
:103C400001684C6824F4E0644C6000210091016834
:103C50004C6900940D6845F001050D6000990168FC
:103C60000C6824F480640C60046861680D050DD54F
:103C70001578222D1CBF11782A2903D1856B29685C
:103C80004E6802E0416B0D686E684685418DD1B18A
:103C90006569690707D5416A4D1C456224690C7046
:103CA000418D4C1E448501684C69650607D5446A00
:103CB000651C456209692170418D4C1E4485016C6B
:103CC00041F004010164016C11B100F020F81CE026
:103CD000282B1CBF2A2B292B0BD1DFF8E811C1623E
:103CE00000210163202111700021517000F091FB2F
:103CF0000BE0016B222918BF222B06D1002303639E
:103D000020211170537000F07FFB002076BD38B584
:103D1000044604F13D052878292818BF2A2804D133
:103D200000202063282028700BE02878602805D028
:103D30002168486801055CBF2021297000202063AC
:103D4000687000F05CF8206841680A0523D5416876
:103D500021F400614160606B0FF2951190F83520FD
:103D6000012A09D00165606B00F0C7FB002829D04B
:103D700000F04BF8606B0BE0A06B0165A06B00F0EE
:103D8000BCFBF8B1206800F031F800F03EF8A06B01
:103D9000016D884716E0297860290ED120222A700B
:103DA0000022226400F022F82068016849084900D6
:103DB0000160204600F0A6FC04E000F017F8204661
:103DC00000F0A1FC287828280FD1216C48070CD5D9
:103DD000FFF72BFC00202063202028700020687053
:103DE0002046BDE8324000F014BB31BD41694A06AF
:103DF00004D5616A4A1C62620069087070472068D5
:103E0000016821F400610160704720680168490879
:103E100049000160202028707047F8B504460D461F
:103E2000E06A04281EBF01282649884216461F461C
:103E300002D1FFF7FEFB03E0206B122800F031F8FF
:103E40000097334600F028F810BB2069B0F5804F8A
:103E500004D1216805F0FE050D610EE0E809216836
:103E600000F0060040F0F00008613B4632461A4977
:103E700000F025F838B900F01BF83B4632461549EA
:103E800000F01DF828B1206C042801D10120F2BDFA
:103E90000320F2BD0096534600224FF00111204648
:103EA0004EE004D12068036843F4807303607047D8
:103EB0002068EDB20561704733464A4641462046C8
:103EC00074E000000000FFFF4000010080000100DE
:103ED00004001000020001000800010010000100B1
:103EE00001680B6823F480630B6001687047000071
:103EF000806B01680A6822F480620A6000214185B3
:103F0000426B1165826B116500F13D010B78602BEE
:103F10000BD120220A7000224A70026401680A68EC
:103F2000520852000A6000F0EDBB20230B70002203
:103F30004A7001680A68520852000A6000F0E3BB48
:103F40002DE9F8430F46089C3D02064690469946E7
:103F50002D0E3068012D1ED14069384080B2B9B2B3
:103F600088421ED0002040451DD119F1010FF0D02C
:103F7000B9F1000F04D000F03FFA001B8145E8D2F0
:103F800000203063202106F13C0041700021817047
:103F90000170032008E08069384080B2B9B28842DD
:103FA000E0D10120DFE70020BDE8F2832DE9FC41EC
:103FB0000F463E02054614469846360E2868012EE6
:103FC00018D14169394089B2BAB2914218D04169D9
:103FD0004A0517D5026842F4007202606FF48060EF
:103FE0002968486105F13C0004224260002100F08C
:103FF0005FF81AE08169394089B2BAB29142E6D1DC
:10400000002012E014F1010FD8D02CB100F0F4F927
:10401000A0EB08008442D1D200202863202105F1C2
:104020003C004170002101700320BDE8F68170B5AD
:1040300005460C4616462868416908060FD42846EE
:1040400000F03DF808B1012070BD14F1010FF2D06D
:1040500024B100F0D1F9801B8442ECD21BE0002097
:1040600070BD70B505460C4616462868416948077C
:104070000FD4284600F023F808B1012070BD14F1D8
:10408000010FF2D024B100F0B7F9801B8442ECD2CA
:1040900001E0002070BD05F13C000022416841F0C4
:1040A000200141602A63202141700270032070BD0D
:1040B00029632021417000210170012070470168AF
:1040C0004A6953050DD56FF480634B6100F13C01E3
:1040D00004224A6000220263202048700A700120F6
:1040E000704700207047000080B542484249016097
:1040F0004249416000218160C1604FF4804101610B
:10410000002141618161C1610162FFF759F930B15C
:10411000BDE804404F210FF2FC0000F095BB01BD4B
:104120002DE9F843044686B02068334988425ED1C1
:10413000C0211220019102900121032003910490DB
:104140000422059201A92E482E4D0FF2C80900F055
:104150008BFB00222C4800924FF00076016841F45E
:10416000001101604FF480670068284900F40010D6
:1041700000904FF4807800982960AA60EA606A6134
:10418000AA612A626A626E602F61C5F81C802846A7
:1041900000F040F918B17A21484600F055FB1C4860
:1041A000A56328666E664020A86605F18406002097
:1041B000E8666867A867C5F880003060AC632F6761
:1041C000C5F87C8005F1600000F024F918B18C215D
:1041D000484600F039FB05F160006063746100221D
:1041E00000211F2000F052FC1F2000F06CFC07B0E3
:1041F000BDE8F083301D002000540040A08601007F
:1042000000040240101C00204038024010600240B0
:10421000A0600240453A5C55736572735C626572DA
:10422000747A5C446F63756D656E74735C47697412
:104230004875625C53544D333246343037564554DA
:10424000365C444143353537315C5372635C6932C7
:10425000632E63002DE9F84304000F4677D04A4EE1
:10426000306800F00F00B84202D200F072F86ED150
:104270002068464D810712D5400703D5A86840F451
:10428000E050A8602178080703D5A86840F4604092
:10429000A860A968A06821F0F0010143A960207816
:1042A000C1074CD56068012802D129688A0305E05E
:1042B000022818BF032803D129688A0103D446E0E5
:1042C0002A68910743D5A968890840EA8100A86057
:1042D00041F2893900F090F88046A868616800F0E2
:1042E0000C00B0EB810F2AD000F086F8A0EB08009C
:1042F0004845F2D3032020E02078410705D5A9687E
:10430000E06821F4E0510143A9602078010706D557
:10431000A868216920F4604040EAC100A86000F06C
:104320003FF8AA681A49C2F30312895C194AC840C7
:104330001060002000F002FC0020BDE8F28330682D
:1043400000F00F008742D7D200F003F8D4D001204C
:10435000F3E73770316801F00F01B94270470D483B
:10436000006870470B480C4A006813680B49C3F398
:10437000822206E00748084A006813680749C3F329
:104380004232895CC8407047003C0240003802401D
:10439000407900080000002008380240B07A000888
:1043A00018B5124C606800F00C00042802D00828F0
:1043B00002D019E00E4812BD002322682068410295
:1043C0002068C0F388104CBF09490A4902F03F0237
:1043D000A1FB0001FEF766FA2168C1F30141491C07
:1043E0004900B0FBF1F012BD024812BD0438024092
:1043F00000127A000024F40001480068704700BFF2
:10440000681E0020704770477047704770477047BC
:10441000704770477CB50446FFF7EEFF06460CB9BF
:10442000012076BD04F13405002028700220687058
:1044300000F043F921680868C20720D5FFF7DCFFC8
:10444000801B0628F6D320202862032015E0B0F553
:10445000005F09D1032E42D8DFE806F00C0A0C02F7
:10446000B1F1C07F3BD105E0022E03D9F61E36D153
:10447000C80134D5402028620120687076BD0A68E2
:10448000DFF82402024060680243A0680243E0684B
:1044900002432069024360690243A0690243E06964
:1044A0000243206A0243606A042803D1E36A206B56
:1044B00003431A430A6023685A69606AD2080428D1
:1044C00040EAC2020BD1A66AE16A324339B1A0695F
:1044D0000028BCD1002E18BF022EC9D0C0D35A610B
:1044E000204600F0F5F8A96A3F228A408260002049
:1044F000286201206870002076BD90F835100229EE
:1045000003D08022426501207047052180F83510D4
:1045100000680168490849000160002070472DE9E2
:10452000FC41044604F134060020604900904FF439
:104530001650776A0A683D68B2FBF0F8B06A082145
:1045400000F0B7F80ED02068026853070AD5036858
:1045500023F004030360B06A8140B960306A40F020
:1045600001003062B06A25FA00F1C9070BD5216855
:104570004A69110607D5012101FA00F0B860306AD6
:1045800040F002003062042100F092F808D0216867
:104590000A68930704D5B860306A40F004003062BE
:1045A000102100F085F81BD021680A68130717D581
:1045B000B860206801684A0307D5006801030BD57D
:1045C000716969B1204688470AE00168CA0503D4C9
:1045D000026822F008020260F16809B120468847AB
:1045E000B06A202100F065F841D021680A68D3063E
:1045F0003DD5B86020687178052920D1026822F085
:10460000160202602068416921F080014161F16871
:10461000002904BF7069002804D02068016821F0D7
:10462000080101603F22B06A8240BA6000F04BF896
:10463000F169002935D02046BDE8FC4108470168F2
:104640004A0307D5006801030DD4316979B12046CA
:1046500088470CE00168CA0505D4026822F0100200
:10466000026000F030F8B16809B120468847306A2E
:10467000B8B1316AC8070ED50520707000F01DF87A
:1046800020680099491C8845009102D30168CA0737
:10469000F7D400F018F8B16919B12046BDE8FC4123
:1046A0000847BDE8F38100003F8010F000000020C3
:1046B000B06A01FA00F005427047206801684908B5
:1046C0004900016070470020307001207070704711
:1046D00081B0016801F0FF02103A1823B2FBF3F237
:1046E0000FF218039B5CC365890A8902042A28BF5C
:1046F000091D8165084601B07047000000061016CC
:1047000000061016704770471CB500F02BFA00F039
:104710003FF800F041FA00F079FA00F0A3FA00F057
:104720000DFB00F0A1FBFFF7DFFC0022002143207E
:1047300000F0ACF9432000F0C6F90022002132203D
:1047400000F0A4F9322000F0BEF90022002125205B
:1047500000F09CF9252000F0B6F900220021462047
:1047600000F094F9462000F0AEF94FF6FF7000908B
:104770000223314A31480FF2D4049821FEF78CFE0F
:10478000204600F08DFB4FF4FA7000F09DFBF7E738
:1047900080B592B0002000902948016841F0805116
:1047A00001600021006800F08050009000982548CA
:1047B00000910121026842F4804202604FF480328D
:1047C000006800F4804000900098069102200C9050
:1047D0004FF480010D9104200E90A8210F9102202A
:1047E000109007210792119106A800F07DFB00B1FF
:1047F000FEE70F2102200191029000214FF4A0500A
:10480000039104900590052101A8FFF723FD00B155
:10481000FEE7FFF7A4FD4FF47A71B0FBF1F000F072
:104820005CF9042000F06DF9002200214FF0FF3008
:1048300000F02CF913B000BD20020020301D002034
:104840004038024000700040FEE700000D0A20776B
:10485000656C636F6D6520746F2053544D46343022
:10486000377878200D0A00002DE9F84F4FF0000E40
:104870006D4A6E4BDFF8B8814FF00F0906468A4645
:104880000121DAF8004001FA0EF10C408C4240F0B0
:10489000BC80DAF80450022D18BF122D4FEA8E00AA
:1048A00012D14FEADE0506EB850C00F01C05DCF8A2
:1048B000207009FA05FB27EA0B07DAF810B00BFAAB
:1048C00005F53D43CCF820504FEA4E0C03253768E0
:1048D0009AF804B005FA0CF5ED430BF0030B2F40EA
:1048E0000BFA0CFB4BEA07073760DAF80470012F6C
:1048F00018BF022F03D0112F18BF122F13D1B76882
:10490000DAF80CB02F400BFA0CFB4BEA0707B76044
:10491000776827EA0101DAF80470C7F3001707FA8D
:104920000EF739437160F1680D40DAF8081001FAAA
:104930000CF12943F160DAF80410C90065D50025AF
:10494000009500F00C00D8F8001041F48041C8F840
:10495000001009FA00F7D8F8005005F480450095DA
:1049600000994FEA9E0153F8215025EA0707314D7F
:10497000AE4208BF002522D02F4DAE4208BF012510
:104980001DD02E4DAE4208BF022518D02C4DAE4290
:1049900008BF032513D02B4DAE4208BF04250ED00F
:1049A000294DAE4208BF052509D0284DAE4208BFAB
:1049B000062504D0264DAE420CBF0725082505FA72
:1049C00000F0384343F82100E0431168DAF804505E
:1049D0000140ED0348BF214311605168DAF80450EB
:1049E0000140AD0348BF214351609168DAF804509B
:1049F0000140ED0248BF21439160D1680140DAF8DF
:104A00000400800248BF2143D1600EF1010EBEF1C7
:104A10000F0F7FF635AFBDE8F18F81B002B9090401
:104A2000816101B070470000003C0140083801403E
:104A300044380240000002400004024000080240E6
:104A4000000C024000100240001402400018024016
:104A5000001C02400901002881B006D52F4A00F051
:104A60000F00104400F8041C01E02D4A115401B05D
:104A700070472C4A13684FF6FF0100020B4000F408
:104A8000E0601843284908431060704738B5254B4B
:104A90001C68C4F30223C3F10704052C28BF0424B7
:104AA0001D1D072D34BF0023DB1E012505FA04F46C
:104AB000641E2140994005FA03F35B1E1A4011431E
:104AC000BDE83440C6E7012200F01F01174BFFE7A5
:104AD0008A40400943F82020704710B5401EB0F1CD
:104AE000807F01D3012010BD114C60600F214FF079
:104AF000FF30FFF7AFFF0022A260072020600020F8
:104B000010BD04280A4904D1086840F00400086078
:104B100070470A6822F004020A60704718ED00E04E
:104B200000E400E00CED00E00000FA0500E100E028
:104B300010E000E000F000B87047000010B5084930
:104B40000A6804464FF47A70B2FBF0F0FFF7C5FF35
:104B5000002221464FF0FF30FFF798FF002010BDE4
:104B60000000002080B50B48016841F4007101602D
:104B7000026842F480620260016841F48071016061
:104B80000320FFF776FF0020FFF7D8FF00F014FBAB
:104B9000002002BD003C024010B586B0002000900D
:104BA000184C1948016841F080010160026802F068
:104BB00080020092002200990092036843F00103F2
:104BC0000360016801F00101009100990092C02189
:104BD000036843F002030360006800F002000090E5
:104BE00000982046FFF719FFC02001900121002006
:104BF00002910390049001A92046FFF735FE06B00C
:104C000010BD00BF000002403038024080B50020D7
:104C100000901348016841F480010160026802F4C9
:104C2000800200920022009900920021036843F460
:104C300000130360006800F40010009000980B203F
:104C4000FFF724FF0B20FFF73EFF00220021112079
:104C5000FFF71CFFBDE802401120FFF734BF00BF83
:104C600030380240224838B5224C0FF290052060BF
:104C700086B0542060600020A06040F2E730E06021
:104C800000202061204600F0C7FA18B148212846CC
:104C9000FFF7DAFD4FF48050029002A9204600F0A1
:104CA0007EFB18B14E212846FFF7CEFD0020009074
:104CB00001906946204600F073FC18B15521284642
:104CC000FFF7C2FD07B030BD81B0006808498842D7
:104CD0000BD1002108480091026842F008020260EE
:104CE000006800F008000090009801B070470000D4
:104CF000000C0040141E002040380240453A5C552C
:104D0000736572735C626572747A5C446F63756D0F
:104D1000656E74735C4769744875625C53544D33B7
:104D20003246343037564554365C44414335353786
:104D3000315C5372635C74696D2E630080B53348D7
:104D4000334901604FF4E131416000218160C1606D
:104D500001610C21416100218161C16100F046FCCB
:104D600030B1BDE804404E210FF2B800FFF76CBD32
:104D700001BD38B5044686B020682549884238D13F
:104D800000212448244D00914FF4C061026842F094
:104D9000100202600222006800F0100000900098EB
:104DA00001910120039003210720049105900292B4
:104DB00001A91A48FFF758FD4FF0006068604020D5
:104DC000A8600020E8604FF480602861002014494A
:104DD0006861A861E8612862686229602846FFF777
:104DE00019FB20B178210FF23C00FFF72DFD256360
:104DF000AC6307B030BD01B54FF6FF7301226946C1
:104E0000024800F02FFC009802BD0000D41D0020D5
:104E10000010014044380240D01C00200000024035
:104E2000B8640240453A5C55736572735C626572A2
:104E3000747A5C446F63756D656E74735C476974F6
:104E40004875625C53544D333246343037564554BE
:104E5000365C444143353537315C5372635C75735E
:104E60006172742E6300000010B5094C09490022DC
:104E7000204600F04CFE0849204600F05BFE074942
:104E8000204601F041F82046BDE8104000F05ABE2F
:104E9000141600202401002010000020140100201E
:104EA0000EB4C0B5024603A800210190009101ABE9
:104EB0000121044878440C30FCF732FC06BC5DF854
:104EC00010FB00BFAF2B000031B5FFF795FA009D36
:104ED00015F1010F044618BF6D1CFFF78DFA001B7A
:104EE000A842FAD331BD00002DE9FC41040017D0DF
:104EF0002078AD4DC10741D5A86800F00C0004280A
:104F000007D0A86800F00C0008280BD1686841029F
:104F100008D52968880331D56068002840F0B5803D
:104F200001203FE16068B0F5803F06D0B0F5A02FCA
:104F3000296807D141F480212960286840F4803035
:104F4000286006E021F4803129602A6822F480225A
:104F50002A60606868B1FFF74FFA0646296888033F
:104F600000F19380FFF748FA801B6528F6D30320F1
:104F700018E1FFF741FA06462868810340F1858071
:104F8000FFF73AFA801B6528F6D3F0E7FFF734FA0B
:104F9000C01B022840F2A680E9E7E06870B1012159
:104FA0003160FFF729FA07462868810700F1C180C0
:104FB000FFF722FAC01B0228F6D9D8E73060FFF7C6
:104FC0001BFA07462868810762D5FFF715FAC01B50
:104FD0000228F7D9CBE70860FFF70EFA0746686F9B
:104FE000810774D5FFF708FAC01B0228F7D9BEE77E
:104FF0000528286F06D140F004002867286F40F08C
:10500000010005E0400840002867286F20F00400F8
:10501000286741F28937A06868B1FFF7EDF980464B
:10502000286F810700F19280FFF7E6F9A0EB0800F6
:10503000B842F5D39BE7FFF7DFF98046286F810779
:1050400056D5FFF7D9F9A0EB0800B842F6D38EE7A2
:10505000FFF7D2F9C01B022840F2878087E7FFF7ED
:10506000CBF9001B022840F2988080E700203066D0
:10507000FFF7C2F904462868810140F19280FFF7EA
:10508000BBF9001B0228F6D971E72078474E81074B
:105090001BD5A86810F00C0F09D0A86800F00C0010
:1050A00008287FF47AAF686841023FF576AF296837
:1050B000880703D5E06801287FF432AF29682069AA
:1050C00021F0F80141EAC0012960217808070DD5D7
:1050D0006069374900283FF47EAF01220A60FFF77C
:1050E0008BF90746686F81077FF550AF2178480735
:1050F0002CD500200090296CDFF8B88041F0805159
:105100002964286C00F0805000900098D8F80010B6
:1051100041F48071C8F80010FFF76EF90746D8F81F
:105120000000C1050DD4FFF767F9C01B0228F6D9AE
:105130001DE72868216920F0F80040EAC1002860D6
:10514000C3E7A06801287FF453AF57E7A06940B3D5
:10515000A96801F00C0108293FF4E2AE022885D1CC
:1051600000203066FFF748F90746286881013FF5BF
:105170006FAFE169206AA26A0143606A520841EA9E
:105180008011521EE06A41EA024141EA0061696011
:1051900001213166FFF730F90446286881017FF567
:1051A0005EAF0020BDE8F6810038024000004742B3
:1051B000800E47420070004080B50320FFF759FC85
:1051C000002200216FF00B00FFF760FC002200219D
:1051D0006FF00A00FFF75AFC002200216FF009006F
:1051E000FFF754FC002200216FF00400FFF74EFC93
:1051F000002200216FF00300FFF748FC002200218D
:105200006FF00100FFF742FCBDE8084000220021DA
:105210004FF0FF30FFF73ABC38B5040001D1012050
:1052200032BD00F014F818B900F00DF8FFF74CFD8E
:10523000FFE702206870211D206800F01AF90120A4
:105240006870002032BD002129702046704704F1AB
:1052500038056878704710B50446206801698A07E8
:1052600015D5C1688A0712D56FF0020202610121CB
:105270002176806910F0030F204602D000F06CFE0A
:1052800003E000F06AFE00F087F800202076206836
:1052900001694A0715D5C1684A0712D56FF00402A3
:1052A000026102212176806910F4407F204602D0FD
:1052B00000F052FE03E000F050FE00F06DF8002018
:1052C0002076206801690A0715D5C1680A0712D53A
:1052D0006FF00802026104212176C06910F0030F0B
:1052E000204602D000F038FE03E000F036FE00F069
:1052F00053F80020207620680169CA0615D5C168D8
:10530000CA0612D56FF01002026108212176C06929
:1053100010F4407F204602D000F01EFE03E000F0B3
:105320001CFE00F039F80020207620680169CA07C9
:1053300008D5C168CA0705D56FF001020261204691
:1053400000F00CFE206801690A0608D5C1680A064B
:1053500005D56FF080020261204600F000FE206853
:1053600001694A0608D5C1684A0605D56FF04002B2
:105370000261204600F0F4FD206801698A060AD522
:10538000C1688A0607D56FF0200202612046BDE899
:10539000104000F0E6BD10BD204600F0E3BD38B57A
:1053A00000F05CF801D1022032BD012222700220FF
:1053B00060702A68DFF84C019368034093600868C6
:1053C000002837D0102837D0202837D0302837D0C1
:1053D00040282BD050281ED0602820D070280BD019
:1053E000B0F5805F03D0B0F5005F0CD02CE02868EA
:1053F0008168C908C9000CE000F027F828688168B6
:1054000041F0770105E000F020F82868816841F458
:105410008041816018E000F01DF8502111E0CA6859
:105420004968286800F097F860210AE000F012F857
:10543000402106E0002104E0102102E0202100E0EC
:105440003021286800F099F80EE0CB684A68896836
:1054500028689AE0CA68496828686BE0054605F143
:1054600038042078012870470120607000202070E7
:1054700032BDF0B5244C0568244B254E254FDFF88E
:1054800098C0A04218BFB0F1804F07D0604518BF48
:10549000B84203D0B04218BF98420DD14A6825F0F7
:1054A00070051543A04218BFB0F1804F17D060457A
:1054B0001CBFB842B04212D098421CBF174A90425B
:1054C0000DD0174A90421CBF164A904207D0164A88
:1054D00090421FBF154A9042154A904203D1CA68B4
:1054E00025F4407515430560A0428A68C2620A68C7
:1054F000826212BF98420969016301214161F0BDD6
:10550000000000008800FFFF00000140000401408F
:10551000000C004000080040000400400040014032
:10552000004401400048014000180040001C0040B9
:105530000020004010B5036A046A64086400046235
:1055400023F00A03846924F0F00444EA021484611D
:105550001943016210BD10B5036A23F01003036202
:105560008369046A23F4704343EA023324F0A004FD
:10557000836144EA0114046210BD826822F0700263
:10558000114341F007018160704710B5846824F42D
:105590007F442143114341EA0321816010BD000093
:1055A00030B500F138031A78012A01D1022030BD4C
:1055B00001241C7002225A700268546824F070049E
:1055C0005460046865680A681543656002689468F9
:1055D00024F08004946002689468486804439460EE
:1055E000012058700020187030BD000038B504004C
:1055F00001D1012032BD00F022F808B900F023F8F3
:1056000000F013F800F024F8FFE7416100F001F822
:1056100032BD2068C16841F40051C160002068605B
:1056200020206870A87000207047242068702068CF
:10563000C16821F40051C160204600F0A7B904F10F
:10564000380568787047002129702046FFF791BB24
:105650002068016921F4904101612068416921F0CD
:105660002A0170472DE9F843054605F138070C4635
:1056700078782028164698463CD1002C14BF002E7E
:10568000012038D03878012834D001213970212008
:10569000002179607870FEF7AFFEAE848146EE841B
:1056A00003E0296814F8010B4860E88C28B3E98C02
:1056B000481EE8844B46A868CDF80080B0F5805FAE
:1056C0000DD100F024F870B920882968C0F30800D3
:1056D00048602869002814BF641CA41CE5E700F09A
:1056E00016F80028DDD0032005E020207870002087
:1056F000387000E00220BDE8F283CDF800804B4610
:105700000022402100F005F80028EED0EBE700224F
:1057100080212846AEE0416921F040014161606B83
:10572000704738B5044625682968EA686B6911F046
:105730000F0007D188065DD590065BD52046BDE8F1
:105740003240DDE0D80702D412F4907F52D0C8076F
:1057500005D5D00503D5E06B40F00100E0634807B4
:1057600005D5D80703D5E06B40F00200E063880759
:1057700005D5D80703D5E06B40F00400E0630807C7
:1057800005D5D80703D5E06B40F00800E063E06B77
:1057900000286ED0890604D5900644BF204600F04C
:1057A000AFF820684069E16B0A0701D440061BD5B9
:1057B000204600F091F8206841694A060FD5FFF7AE
:1057C000AAFF60B10FF22D110165606BFEF795FE27
:1057D00000284ED0606B016DBDE83440084720467C
:1057E000BDE8324000F0BFBB204600F0BCFB00200B
:1057F000E06331BD08062CD510062AD594F839008F
:10580000212836D1A168206AB1F5805F0DD10188C9
:10581000C1F308016960206918B9216A881C2062F7
:1058200007E0206A411C216203E0411C21620078EC
:105830006860E08C401EE08480B2D0B92068C16806
:1058400021F08001C1602068C16841F04001C16061
:1058500031BD48060DD550060BD5E86820F0400054
:10586000E860202184F839102046BDE8324000F07D
:105870007BBB31BD2DE9F041069C05460E469046A6
:105880001F46286801683140B1420CBF012000204A
:10589000404517D114F1010FF3D024B1FEF7ACFD50
:1058A000C01B8442EDD22868C16821F4D07100F099
:1058B0000CF805F138002021417081700021017041
:1058C000032000E00020BDE8F081C1602868416944
:1058D00049084900416170470168CA6822F4907222
:1058E000CA6001684A69520852004A61202180F862
:1058F0003A107047806B0021C185C18400F033BB32
:1059000080B590F83A1022293ED18268B2F5805FC6
:1059100014D1826A016941B903685968C1F3080169
:105920001180826A911C816218E001684B6803F063
:10593000FF031380816A4A1C82620FE0016900291B
:10594000816A04D14A1C82620268536805E04A1CDD
:1059500082620268536803F07F030B70C18D491E99
:10596000C18589B271B90168CA6822F49072CA60AF
:1059700001684A69520852004A61202180F83A10B1
:1059800000F0F3FA002002BD022002BD2DE9F0472D
:105990000446642521680A69E06822F44052024303
:1059A0000A611926CA6848480240A0680243206973
:1059B000024360690243E0690243CA604A69A06920
:1059C00022F4407202434A61E3694048404AB3F519
:1059D000004F3BD1914218BF814210D1FEF7CAFC63
:1059E0000746FEF7C7FC8046FEF7C4FC8146FEF77B
:1059F000C1FC06FB09F98246FEF7BCFC0FE0FEF78E
:105A0000B1FC0746FEF7AEFC8046FEF7ABFC8146D4
:105A1000FEF7A8FC06FB09F98246FEF7A3FC6168C5
:105A2000490000F057F8DB003233B3FBF5F35B00BD
:105A3000B2FBF5F203F4F87300F05AF8ED003235DA
:105A40006420B5FBF0F000F0070037E0914218BF8A
:105A500081420ED1FEF78EFC0746FEF78BFC804696
:105A6000FEF788FC8146FEF785FC8246FEF782FC45
:105A70000DE0FEF777FC0746FEF774FC8046FEF764
:105A800071FC8146FEF76EFC8246FEF76BFC06FB5E
:105A900009F96168890000F01DF81B013233B3FB7E
:105AA000F5F3B2FBF5F203F0F00300F021F82D015D
:105AB00032356420B5FBF0F000F00F002168C31808
:105AC0008B60BDE8F0870000F369FFFF0014014020
:105AD000001001407743B7FBF1F206FB08F7B7FB74
